{
  "contractName": "MedicalDataConsent",
  "abi": [
    {
      "anonymous": false,
      "inputs": [
        {
          "indexed": true,
          "internalType": "address",
          "name": "researcher",
          "type": "address"
        },
        {
          "indexed": true,
          "internalType": "address",
          "name": "patient",
          "type": "address"
        }
      ],
      "name": "AccessRequested",
      "type": "event"
    },
    {
      "anonymous": false,
      "inputs": [
        {
          "indexed": true,
          "internalType": "address",
          "name": "patient",
          "type": "address"
        },
        {
          "indexed": true,
          "internalType": "address",
          "name": "requester",
          "type": "address"
        }
      ],
      "name": "ConsentGiven",
      "type": "event"
    },
    {
      "anonymous": false,
      "inputs": [
        {
          "indexed": true,
          "internalType": "address",
          "name": "patient",
          "type": "address"
        },
        {
          "indexed": true,
          "internalType": "address",
          "name": "requester",
          "type": "address"
        }
      ],
      "name": "ConsentRevoked",
      "type": "event"
    },
    {
      "anonymous": false,
      "inputs": [
        {
          "indexed": true,
          "internalType": "address",
          "name": "patient",
          "type": "address"
        },
        {
          "indexed": false,
          "internalType": "string",
          "name": "dataHash",
          "type": "string"
        }
      ],
      "name": "DataAdded",
      "type": "event"
    },
    {
      "inputs": [
        {
          "internalType": "address",
          "name": "",
          "type": "address"
        },
        {
          "internalType": "address",
          "name": "",
          "type": "address"
        }
      ],
      "name": "consents",
      "outputs": [
        {
          "internalType": "address",
          "name": "requester",
          "type": "address"
        },
        {
          "internalType": "bool",
          "name": "isApproved",
          "type": "bool"
        }
      ],
      "stateMutability": "view",
      "type": "function",
      "constant": true
    },
    {
      "inputs": [
        {
          "internalType": "address",
          "name": "",
          "type": "address"
        }
      ],
      "name": "medicalRecords",
      "outputs": [
        {
          "internalType": "string",
          "name": "dataHash",
          "type": "string"
        },
        {
          "internalType": "address",
          "name": "patient",
          "type": "address"
        }
      ],
      "stateMutability": "view",
      "type": "function",
      "constant": true
    },
    {
      "inputs": [
        {
          "internalType": "string",
          "name": "dataHash",
          "type": "string"
        }
      ],
      "name": "addMedicalRecord",
      "outputs": [],
      "stateMutability": "nonpayable",
      "type": "function"
    },
    {
      "inputs": [
        {
          "internalType": "address",
          "name": "patient",
          "type": "address"
        }
      ],
      "name": "requestAccess",
      "outputs": [],
      "stateMutability": "nonpayable",
      "type": "function"
    },
    {
      "inputs": [
        {
          "internalType": "address",
          "name": "requester",
          "type": "address"
        }
      ],
      "name": "giveConsent",
      "outputs": [],
      "stateMutability": "nonpayable",
      "type": "function"
    },
    {
      "inputs": [
        {
          "internalType": "address",
          "name": "requester",
          "type": "address"
        }
      ],
      "name": "revokeConsent",
      "outputs": [],
      "stateMutability": "nonpayable",
      "type": "function"
    },
    {
      "inputs": [
        {
          "internalType": "address",
          "name": "patient",
          "type": "address"
        }
      ],
      "name": "hasConsent",
      "outputs": [
        {
          "internalType": "bool",
          "name": "",
          "type": "bool"
        }
      ],
      "stateMutability": "view",
      "type": "function",
      "constant": true
    }
  ],
  "bytecode": "0x608060405234801561001057600080fd5b50611206806100206000396000f3fe608060405234801561001057600080fd5b506004361061007d5760003560e01c8063ae83af551161005b578063ae83af55146100eb578063d1a486271461011c578063e3cd936914610138578063e671926a146101685761007d565b8063022cb27114610082578063106d61701461009e578063799cb1c2146100cf575b600080fd5b61009c60048036038101906100979190610d68565b610184565b005b6100b860048036038101906100b39190610d68565b6103c6565b6040516100c6929190610f8b565b60405180910390f35b6100e960048036038101906100e49190610d68565b610492565b005b61010560048036038101906101009190610d91565b610762565b604051610113929190610f25565b60405180910390f35b61013660048036038101906101319190610d68565b6107c0565b005b610152600480360381019061014d9190610d68565b610a91565b60405161015f9190610f4e565b60405180910390f35b610182600480360381019061017d9190610dcd565b610b27565b005b600073ffffffffffffffffffffffffffffffffffffffff166000808373ffffffffffffffffffffffffffffffffffffffff1673ffffffffffffffffffffffffffffffffffffffff16815260200190815260200160002060010160009054906101000a900473ffffffffffffffffffffffffffffffffffffffff1673ffffffffffffffffffffffffffffffffffffffff161415610255576040517f08c379a000000000000000000000000000000000000000000000000000000000815260040161024c90610fbb565b60405180910390fd5b60405180604001604052803373ffffffffffffffffffffffffffffffffffffffff16815260200160001515815250600160008373ffffffffffffffffffffffffffffffffffffffff1673ffffffffffffffffffffffffffffffffffffffff16815260200190815260200160002060003373ffffffffffffffffffffffffffffffffffffffff1673ffffffffffffffffffffffffffffffffffffffff16815260200190815260200160002060008201518160000160006101000a81548173ffffffffffffffffffffffffffffffffffffffff021916908373ffffffffffffffffffffffffffffffffffffffff16021790555060208201518160000160146101000a81548160ff0219169083151502179055509050508073ffffffffffffffffffffffffffffffffffffffff163373ffffffffffffffffffffffffffffffffffffffff167f40c7749b16fdfb0d550f20273a7767875059d647af94f5a9610c63ad73dcc79f60405160405180910390a350565b60006020528060005260406000206000915090508060000180546103e990611118565b80601f016020809104026020016040519081016040528092919081815260200182805461041590611118565b80156104625780601f1061043757610100808354040283529160200191610462565b820191906000526020600020905b81548152906001019060200180831161044557829003601f168201915b5050505050908060010160009054906101000a900473ffffffffffffffffffffffffffffffffffffffff16905082565b3373ffffffffffffffffffffffffffffffffffffffff166000803373ffffffffffffffffffffffffffffffffffffffff1673ffffffffffffffffffffffffffffffffffffffff16815260200190815260200160002060010160009054906101000a900473ffffffffffffffffffffffffffffffffffffffff1673ffffffffffffffffffffffffffffffffffffffff1614610561576040517f08c379a000000000000000000000000000000000000000000000000000000000815260040161055890610ffb565b60405180910390fd5b8073ffffffffffffffffffffffffffffffffffffffff16600160003373ffffffffffffffffffffffffffffffffffffffff1673ffffffffffffffffffffffffffffffffffffffff16815260200190815260200160002060008373ffffffffffffffffffffffffffffffffffffffff1673ffffffffffffffffffffffffffffffffffffffff16815260200190815260200160002060000160009054906101000a900473ffffffffffffffffffffffffffffffffffffffff1673ffffffffffffffffffffffffffffffffffffffff161461066e576040517f08c379a000000000000000000000000000000000000000000000000000000000815260040161066590610fdb565b60405180910390fd5b60018060003373ffffffffffffffffffffffffffffffffffffffff1673ffffffffffffffffffffffffffffffffffffffff16815260200190815260200160002060008373ffffffffffffffffffffffffffffffffffffffff1673ffffffffffffffffffffffffffffffffffffffff16815260200190815260200160002060000160146101000a81548160ff0219169083151502179055508073ffffffffffffffffffffffffffffffffffffffff163373ffffffffffffffffffffffffffffffffffffffff167f6f9fc0e2e04f63804b784301d64936328c6de2fc16baff3732b8486e910f2b3960405160405180910390a350565b6001602052816000526040600020602052806000526040600020600091509150508060000160009054906101000a900473ffffffffffffffffffffffffffffffffffffffff16908060000160149054906101000a900460ff16905082565b3373ffffffffffffffffffffffffffffffffffffffff166000803373ffffffffffffffffffffffffffffffffffffffff1673ffffffffffffffffffffffffffffffffffffffff16815260200190815260200160002060010160009054906101000a900473ffffffffffffffffffffffffffffffffffffffff1673ffffffffffffffffffffffffffffffffffffffff161461088f576040517f08c379a000000000000000000000000000000000000000000000000000000000815260040161088690610ffb565b60405180910390fd5b8073ffffffffffffffffffffffffffffffffffffffff16600160003373ffffffffffffffffffffffffffffffffffffffff1673ffffffffffffffffffffffffffffffffffffffff16815260200190815260200160002060008373ffffffffffffffffffffffffffffffffffffffff1673ffffffffffffffffffffffffffffffffffffffff16815260200190815260200160002060000160009054906101000a900473ffffffffffffffffffffffffffffffffffffffff1673ffffffffffffffffffffffffffffffffffffffff161461099c576040517f08c379a000000000000000000000000000000000000000000000000000000000815260040161099390610fdb565b60405180910390fd5b6000600160003373ffffffffffffffffffffffffffffffffffffffff1673ffffffffffffffffffffffffffffffffffffffff16815260200190815260200160002060008373ffffffffffffffffffffffffffffffffffffffff1673ffffffffffffffffffffffffffffffffffffffff16815260200190815260200160002060000160146101000a81548160ff0219169083151502179055508073ffffffffffffffffffffffffffffffffffffffff163373ffffffffffffffffffffffffffffffffffffffff167febecee2d3f2ea272f73dd9d9ccc0bacd11280d61240332cbcd8a68173ae5cc2c60405160405180910390a350565b6000600160008373ffffffffffffffffffffffffffffffffffffffff1673ffffffffffffffffffffffffffffffffffffffff16815260200190815260200160002060003373ffffffffffffffffffffffffffffffffffffffff1673ffffffffffffffffffffffffffffffffffffffff16815260200190815260200160002060000160149054906101000a900460ff169050919050565b60405180604001604052808281526020013373ffffffffffffffffffffffffffffffffffffffff168152506000803373ffffffffffffffffffffffffffffffffffffffff1673ffffffffffffffffffffffffffffffffffffffff1681526020019081526020016000206000820151816000019080519060200190610bac929190610c48565b5060208201518160010160006101000a81548173ffffffffffffffffffffffffffffffffffffffff021916908373ffffffffffffffffffffffffffffffffffffffff1602179055509050503373ffffffffffffffffffffffffffffffffffffffff167f4a38af5210d98524692cc33078e70f9daeb8b199bfdec0b4c06f150817ddad7682604051610c3d9190610f69565b60405180910390a250565b828054610c5490611118565b90600052602060002090601f016020900481019282610c765760008555610cbd565b82601f10610c8f57805160ff1916838001178555610cbd565b82800160010185558215610cbd579182015b82811115610cbc578251825591602001919060010190610ca1565b5b509050610cca9190610cce565b5090565b5b80821115610ce7576000816000905550600101610ccf565b5090565b6000610cfe610cf98461104c565b61101b565b905082815260208101848484011115610d1657600080fd5b610d218482856110d6565b509392505050565b600081359050610d38816111b9565b92915050565b600082601f830112610d4f57600080fd5b8135610d5f848260208601610ceb565b91505092915050565b600060208284031215610d7a57600080fd5b6000610d8884828501610d29565b91505092915050565b60008060408385031215610da457600080fd5b6000610db285828601610d29565b9250506020610dc385828601610d29565b9150509250929050565b600060208284031215610ddf57600080fd5b600082013567ffffffffffffffff811115610df957600080fd5b610e0584828501610d3e565b91505092915050565b610e1781611098565b82525050565b610e26816110aa565b82525050565b6000610e378261107c565b610e418185611087565b9350610e518185602086016110e5565b610e5a816111a8565b840191505092915050565b6000610e72601683611087565b91507f50617469656e7420646f6573206e6f74206578697374000000000000000000006000830152602082019050919050565b6000610eb2601783611087565b91507f4e6f20616363657373207265717565737420666f756e640000000000000000006000830152602082019050919050565b6000610ef2600e83611087565b91507f4e6f7420617574686f72697a65640000000000000000000000000000000000006000830152602082019050919050565b6000604082019050610f3a6000830185610e0e565b610f476020830184610e1d565b9392505050565b6000602082019050610f636000830184610e1d565b92915050565b60006020820190508181036000830152610f838184610e2c565b905092915050565b60006040820190508181036000830152610fa58185610e2c565b9050610fb46020830184610e0e565b9392505050565b60006020820190508181036000830152610fd481610e65565b9050919050565b60006020820190508181036000830152610ff481610ea5565b9050919050565b6000602082019050818103600083015261101481610ee5565b9050919050565b6000604051905081810181811067ffffffffffffffff8211171561104257611041611179565b5b8060405250919050565b600067ffffffffffffffff82111561106757611066611179565b5b601f19601f8301169050602081019050919050565b600081519050919050565b600082825260208201905092915050565b60006110a3826110b6565b9050919050565b60008115159050919050565b600073ffffffffffffffffffffffffffffffffffffffff82169050919050565b82818337600083830152505050565b60005b838110156111035780820151818401526020810190506110e8565b83811115611112576000848401525b50505050565b6000600282049050600182168061113057607f821691505b602082108114156111445761114361114a565b5b50919050565b7f4e487b7100000000000000000000000000000000000000000000000000000000600052602260045260246000fd5b7f4e487b7100000000000000000000000000000000000000000000000000000000600052604160045260246000fd5b6000601f19601f8301169050919050565b6111c281611098565b81146111cd57600080fd5b5056fea2646970667358221220e68d38e65d4852eb9bddd30580b6e6e33d587a3b73ff09532778d42c70b1965564736f6c63430008000033",
  "immutableReferences": {},
  "source": "// SPDX-License-Identifier: MIT\npragma solidity ^0.8.0;\n\n/**\n * @title MedicalDataConsent\n * @dev Manages medical data access between patients and researchers.\n */\ncontract MedicalDataConsent {\n    struct MedicalRecord {\n        string dataHash; // IPFS hash of the medical data\n        address patient; // Owner (patient) of the data\n    }\n\n    struct Consent {\n        address requester;  // Researcher requesting access\n        bool isApproved;    // Whether consent is granted\n    }\n\n    // Mapping from patient address to their medical records\n    mapping(address => MedicalRecord) public medicalRecords;\n\n    // Mapping from patient address to researcher address to consent status\n    mapping(address => mapping(address => Consent)) public consents;\n\n    // Events for frontend notifications\n    event DataAdded(address indexed patient, string dataHash);\n    event ConsentGiven(address indexed patient, address indexed requester);\n    event ConsentRevoked(address indexed patient, address indexed requester);\n    event AccessRequested(address indexed researcher, address indexed patient);\n\n    /**\n     * @dev Patients can add their medical data by providing the IPFS hash.\n     * @param dataHash The IPFS hash of the medical data.\n     */\n    function addMedicalRecord(string memory dataHash) public {\n        medicalRecords[msg.sender] = MedicalRecord(dataHash, msg.sender);\n        emit DataAdded(msg.sender, dataHash);\n    }\n\n    /**\n     * @dev Researchers can request access to a patient's medical data.\n     * @param patient The Ethereum address of the patient.\n     */\n    function requestAccess(address patient) public {\n        require(medicalRecords[patient].patient != address(0), \"Patient does not exist\");\n        consents[patient][msg.sender] = Consent(msg.sender, false);\n        emit AccessRequested(msg.sender, patient);\n    }\n\n    /**\n     * @dev Patients can grant consent to a researcher to access their medical data.\n     * @param requester The Ethereum address of the researcher.\n     */\n    function giveConsent(address requester) public {\n        require(medicalRecords[msg.sender].patient == msg.sender, \"Not authorized\");\n        require(consents[msg.sender][requester].requester == requester, \"No access request found\");\n        consents[msg.sender][requester].isApproved = true;\n        emit ConsentGiven(msg.sender, requester);\n    }\n\n    /**\n     * @dev Patients can revoke consent from a researcher.\n     * @param requester The Ethereum address of the researcher.\n     */\n    function revokeConsent(address requester) public {\n        require(medicalRecords[msg.sender].patient == msg.sender, \"Not authorized\");\n        require(consents[msg.sender][requester].requester == requester, \"No access request found\");\n        consents[msg.sender][requester].isApproved = false;\n        emit ConsentRevoked(msg.sender, requester);\n    }\n\n    /**\n     * @dev Researchers can check if they have consent to access a patient's data.\n     * @param patient The Ethereum address of the patient.\n     * @return bool indicating if consent is granted.\n     */\n    function hasConsent(address patient) public view returns (bool) {\n        return consents[patient][msg.sender].isApproved;\n    }\n}\n",
  "sourcePath": "/home/arvind/de-mesp/frontend/contracts/MedicalDataConsent.sol",
  "compiler": {
    "name": "solc",
    "version": "0.8.0+commit.c7dfd78e.Emscripten.clang"
  },
  "schemaVersion": "3.4.16",
  "updatedAt": "2024-09-21T09:07:14.976Z",
  "networkType": "ethereum",
  "devdoc": {
    "details": "Manages medical data access between patients and researchers.",
    "kind": "dev",
    "methods": {
      "addMedicalRecord(string)": {
        "details": "Patients can add their medical data by providing the IPFS hash.",
        "params": {
          "dataHash": "The IPFS hash of the medical data."
        }
      },
      "giveConsent(address)": {
        "details": "Patients can grant consent to a researcher to access their medical data.",
        "params": {
          "requester": "The Ethereum address of the researcher."
        }
      },
      "hasConsent(address)": {
        "details": "Researchers can check if they have consent to access a patient's data.",
        "params": {
          "patient": "The Ethereum address of the patient."
        },
        "returns": {
          "_0": "bool indicating if consent is granted."
        }
      },
      "requestAccess(address)": {
        "details": "Researchers can request access to a patient's medical data.",
        "params": {
          "patient": "The Ethereum address of the patient."
        }
      },
      "revokeConsent(address)": {
        "details": "Patients can revoke consent from a researcher.",
        "params": {
          "requester": "The Ethereum address of the researcher."
        }
      }
    },
    "title": "MedicalDataConsent",
    "version": 1
  },
  "userdoc": {
    "kind": "user",
    "methods": {},
    "version": 1
  }
}