{
  "contractName": "MedicalDataConsent",
  "abi": [
    {
      "anonymous": false,
      "inputs": [
        {
          "indexed": true,
          "internalType": "address",
          "name": "patient",
          "type": "address"
        },
        {
          "indexed": true,
          "internalType": "address",
          "name": "requester",
          "type": "address"
        }
      ],
      "name": "ConsentGiven",
      "type": "event"
    },
    {
      "anonymous": false,
      "inputs": [
        {
          "indexed": true,
          "internalType": "address",
          "name": "patient",
          "type": "address"
        },
        {
          "indexed": true,
          "internalType": "address",
          "name": "requester",
          "type": "address"
        }
      ],
      "name": "ConsentRevoked",
      "type": "event"
    },
    {
      "anonymous": false,
      "inputs": [
        {
          "indexed": true,
          "internalType": "address",
          "name": "patient",
          "type": "address"
        },
        {
          "indexed": false,
          "internalType": "string",
          "name": "dataHash",
          "type": "string"
        }
      ],
      "name": "DataAdded",
      "type": "event"
    },
    {
      "inputs": [
        {
          "internalType": "address",
          "name": "",
          "type": "address"
        },
        {
          "internalType": "address",
          "name": "",
          "type": "address"
        }
      ],
      "name": "consents",
      "outputs": [
        {
          "internalType": "address",
          "name": "requester",
          "type": "address"
        },
        {
          "internalType": "bool",
          "name": "isApproved",
          "type": "bool"
        }
      ],
      "stateMutability": "view",
      "type": "function",
      "constant": true
    },
    {
      "inputs": [
        {
          "internalType": "address",
          "name": "",
          "type": "address"
        }
      ],
      "name": "medicalRecords",
      "outputs": [
        {
          "internalType": "string",
          "name": "dataHash",
          "type": "string"
        },
        {
          "internalType": "address",
          "name": "patient",
          "type": "address"
        }
      ],
      "stateMutability": "view",
      "type": "function",
      "constant": true
    },
    {
      "inputs": [
        {
          "internalType": "string",
          "name": "dataHash",
          "type": "string"
        }
      ],
      "name": "addMedicalRecord",
      "outputs": [],
      "stateMutability": "nonpayable",
      "type": "function"
    },
    {
      "inputs": [
        {
          "internalType": "address",
          "name": "patient",
          "type": "address"
        }
      ],
      "name": "requestAccess",
      "outputs": [],
      "stateMutability": "nonpayable",
      "type": "function"
    },
    {
      "inputs": [
        {
          "internalType": "address",
          "name": "requester",
          "type": "address"
        }
      ],
      "name": "giveConsent",
      "outputs": [],
      "stateMutability": "nonpayable",
      "type": "function"
    },
    {
      "inputs": [
        {
          "internalType": "address",
          "name": "requester",
          "type": "address"
        }
      ],
      "name": "revokeConsent",
      "outputs": [],
      "stateMutability": "nonpayable",
      "type": "function"
    },
    {
      "inputs": [
        {
          "internalType": "address",
          "name": "patient",
          "type": "address"
        }
      ],
      "name": "hasConsent",
      "outputs": [
        {
          "internalType": "bool",
          "name": "",
          "type": "bool"
        }
      ],
      "stateMutability": "view",
      "type": "function",
      "constant": true
    }
  ],
  "bytecode": "0x608060405234801561001057600080fd5b50610f32806100206000396000f3fe608060405234801561001057600080fd5b506004361061007d5760003560e01c8063ae83af551161005b578063ae83af55146100eb578063d1a486271461011c578063e3cd936914610138578063e671926a146101685761007d565b8063022cb27114610082578063106d61701461009e578063799cb1c2146100cf575b600080fd5b61009c60048036038101906100979190610af4565b610184565b005b6100b860048036038101906100b39190610af4565b61036c565b6040516100c6929190610cd7565b60405180910390f35b6100e960048036038101906100e49190610af4565b610438565b005b61010560048036038101906101009190610b1d565b6105fb565b604051610113929190610c71565b60405180910390f35b61013660048036038101906101319190610af4565b610659565b005b610152600480360381019061014d9190610af4565b61081d565b60405161015f9190610c9a565b60405180910390f35b610182600480360381019061017d9190610b59565b6108b3565b005b600073ffffffffffffffffffffffffffffffffffffffff166000808373ffffffffffffffffffffffffffffffffffffffff1673ffffffffffffffffffffffffffffffffffffffff16815260200190815260200160002060010160009054906101000a900473ffffffffffffffffffffffffffffffffffffffff1673ffffffffffffffffffffffffffffffffffffffff161415610255576040517f08c379a000000000000000000000000000000000000000000000000000000000815260040161024c90610d07565b60405180910390fd5b60405180604001604052803373ffffffffffffffffffffffffffffffffffffffff16815260200160001515815250600160008373ffffffffffffffffffffffffffffffffffffffff1673ffffffffffffffffffffffffffffffffffffffff16815260200190815260200160002060003373ffffffffffffffffffffffffffffffffffffffff1673ffffffffffffffffffffffffffffffffffffffff16815260200190815260200160002060008201518160000160006101000a81548173ffffffffffffffffffffffffffffffffffffffff021916908373ffffffffffffffffffffffffffffffffffffffff16021790555060208201518160000160146101000a81548160ff02191690831515021790555090505050565b600060205280600052604060002060009150905080600001805461038f90610e44565b80601f01602080910402602001604051908101604052809291908181526020018280546103bb90610e44565b80156104085780601f106103dd57610100808354040283529160200191610408565b820191906000526020600020905b8154815290600101906020018083116103eb57829003601f168201915b5050505050908060010160009054906101000a900473ffffffffffffffffffffffffffffffffffffffff16905082565b3373ffffffffffffffffffffffffffffffffffffffff166000803373ffffffffffffffffffffffffffffffffffffffff1673ffffffffffffffffffffffffffffffffffffffff16815260200190815260200160002060010160009054906101000a900473ffffffffffffffffffffffffffffffffffffffff1673ffffffffffffffffffffffffffffffffffffffff1614610507576040517f08c379a00000000000000000000000000000000000000000000000000000000081526004016104fe90610d27565b60405180910390fd5b60018060003373ffffffffffffffffffffffffffffffffffffffff1673ffffffffffffffffffffffffffffffffffffffff16815260200190815260200160002060008373ffffffffffffffffffffffffffffffffffffffff1673ffffffffffffffffffffffffffffffffffffffff16815260200190815260200160002060000160146101000a81548160ff0219169083151502179055508073ffffffffffffffffffffffffffffffffffffffff163373ffffffffffffffffffffffffffffffffffffffff167f6f9fc0e2e04f63804b784301d64936328c6de2fc16baff3732b8486e910f2b3960405160405180910390a350565b6001602052816000526040600020602052806000526040600020600091509150508060000160009054906101000a900473ffffffffffffffffffffffffffffffffffffffff16908060000160149054906101000a900460ff16905082565b3373ffffffffffffffffffffffffffffffffffffffff166000803373ffffffffffffffffffffffffffffffffffffffff1673ffffffffffffffffffffffffffffffffffffffff16815260200190815260200160002060010160009054906101000a900473ffffffffffffffffffffffffffffffffffffffff1673ffffffffffffffffffffffffffffffffffffffff1614610728576040517f08c379a000000000000000000000000000000000000000000000000000000000815260040161071f90610d27565b60405180910390fd5b6000600160003373ffffffffffffffffffffffffffffffffffffffff1673ffffffffffffffffffffffffffffffffffffffff16815260200190815260200160002060008373ffffffffffffffffffffffffffffffffffffffff1673ffffffffffffffffffffffffffffffffffffffff16815260200190815260200160002060000160146101000a81548160ff0219169083151502179055508073ffffffffffffffffffffffffffffffffffffffff163373ffffffffffffffffffffffffffffffffffffffff167febecee2d3f2ea272f73dd9d9ccc0bacd11280d61240332cbcd8a68173ae5cc2c60405160405180910390a350565b6000600160008373ffffffffffffffffffffffffffffffffffffffff1673ffffffffffffffffffffffffffffffffffffffff16815260200190815260200160002060003373ffffffffffffffffffffffffffffffffffffffff1673ffffffffffffffffffffffffffffffffffffffff16815260200190815260200160002060000160149054906101000a900460ff169050919050565b60405180604001604052808281526020013373ffffffffffffffffffffffffffffffffffffffff168152506000803373ffffffffffffffffffffffffffffffffffffffff1673ffffffffffffffffffffffffffffffffffffffff16815260200190815260200160002060008201518160000190805190602001906109389291906109d4565b5060208201518160010160006101000a81548173ffffffffffffffffffffffffffffffffffffffff021916908373ffffffffffffffffffffffffffffffffffffffff1602179055509050503373ffffffffffffffffffffffffffffffffffffffff167f4a38af5210d98524692cc33078e70f9daeb8b199bfdec0b4c06f150817ddad76826040516109c99190610cb5565b60405180910390a250565b8280546109e090610e44565b90600052602060002090601f016020900481019282610a025760008555610a49565b82601f10610a1b57805160ff1916838001178555610a49565b82800160010185558215610a49579182015b82811115610a48578251825591602001919060010190610a2d565b5b509050610a569190610a5a565b5090565b5b80821115610a73576000816000905550600101610a5b565b5090565b6000610a8a610a8584610d78565b610d47565b905082815260208101848484011115610aa257600080fd5b610aad848285610e02565b509392505050565b600081359050610ac481610ee5565b92915050565b600082601f830112610adb57600080fd5b8135610aeb848260208601610a77565b91505092915050565b600060208284031215610b0657600080fd5b6000610b1484828501610ab5565b91505092915050565b60008060408385031215610b3057600080fd5b6000610b3e85828601610ab5565b9250506020610b4f85828601610ab5565b9150509250929050565b600060208284031215610b6b57600080fd5b600082013567ffffffffffffffff811115610b8557600080fd5b610b9184828501610aca565b91505092915050565b610ba381610dc4565b82525050565b610bb281610dd6565b82525050565b6000610bc382610da8565b610bcd8185610db3565b9350610bdd818560208601610e11565b610be681610ed4565b840191505092915050565b6000610bfe601683610db3565b91507f50617469656e7420646f6573206e6f74206578697374000000000000000000006000830152602082019050919050565b6000610c3e600e83610db3565b91507f4e6f7420617574686f72697a65640000000000000000000000000000000000006000830152602082019050919050565b6000604082019050610c866000830185610b9a565b610c936020830184610ba9565b9392505050565b6000602082019050610caf6000830184610ba9565b92915050565b60006020820190508181036000830152610ccf8184610bb8565b905092915050565b60006040820190508181036000830152610cf18185610bb8565b9050610d006020830184610b9a565b9392505050565b60006020820190508181036000830152610d2081610bf1565b9050919050565b60006020820190508181036000830152610d4081610c31565b9050919050565b6000604051905081810181811067ffffffffffffffff82111715610d6e57610d6d610ea5565b5b8060405250919050565b600067ffffffffffffffff821115610d9357610d92610ea5565b5b601f19601f8301169050602081019050919050565b600081519050919050565b600082825260208201905092915050565b6000610dcf82610de2565b9050919050565b60008115159050919050565b600073ffffffffffffffffffffffffffffffffffffffff82169050919050565b82818337600083830152505050565b60005b83811015610e2f578082015181840152602081019050610e14565b83811115610e3e576000848401525b50505050565b60006002820490506001821680610e5c57607f821691505b60208210811415610e7057610e6f610e76565b5b50919050565b7f4e487b7100000000000000000000000000000000000000000000000000000000600052602260045260246000fd5b7f4e487b7100000000000000000000000000000000000000000000000000000000600052604160045260246000fd5b6000601f19601f8301169050919050565b610eee81610dc4565b8114610ef957600080fd5b5056fea26469706673582212200b8eb6d40c3e56c7d9d19c5b46a358948b12a60a92080508949cde5436f805c064736f6c63430008000033",
  "immutableReferences": {},
  "source": "// SPDX-License-Identifier: MIT\npragma solidity ^0.8.0;\n\ncontract MedicalDataConsent {\n    struct MedicalRecord {\n        string dataHash; // IPFS/Filecoin hash of the medical data\n        address patient; // Owner (patient) of the data\n    }\n\n    struct Consent {\n        address requester;  // Researcher requesting access\n        bool isApproved;    // Whether consent is granted\n    }\n\n    // Mapping from patient address to their medical records\n    mapping(address => MedicalRecord) public medicalRecords;\n\n    // Mapping from patient address to researcher address to consent status\n    mapping(address => mapping(address => Consent)) public consents;\n\n    // Events\n    event DataAdded(address indexed patient, string dataHash);\n    event ConsentGiven(address indexed patient, address indexed requester);\n    event ConsentRevoked(address indexed patient, address indexed requester);\n\n    // Patients can add their medical data (IPFS/Filecoin hash or encrypted data)\n    function addMedicalRecord(string memory dataHash) public {\n        medicalRecords[msg.sender] = MedicalRecord(dataHash, msg.sender);\n        emit DataAdded(msg.sender, dataHash);\n    }\n\n    // Researchers can request access to a patient's data\n    function requestAccess(address patient) public {\n        require(medicalRecords[patient].patient != address(0), \"Patient does not exist\");\n        consents[patient][msg.sender] = Consent(msg.sender, false);\n    }\n\n    // Patients can give consent to researchers for access\n    function giveConsent(address requester) public {\n        require(medicalRecords[msg.sender].patient == msg.sender, \"Not authorized\");\n        consents[msg.sender][requester].isApproved = true;\n        emit ConsentGiven(msg.sender, requester);\n    }\n\n    // Patients can revoke consent for data access\n    function revokeConsent(address requester) public {\n        require(medicalRecords[msg.sender].patient == msg.sender, \"Not authorized\");\n        consents[msg.sender][requester].isApproved = false;\n        emit ConsentRevoked(msg.sender, requester);\n    }\n\n    // Researchers can check if they have access to patient data\n    function hasConsent(address patient) public view returns (bool) {\n        return consents[patient][msg.sender].isApproved;\n    }\n}\n",
  "sourcePath": "/home/shukraditya/devjams/md-bc/contracts/MedicalDataConsent.sol",
  "compiler": {
    "name": "solc",
    "version": "0.8.0+commit.c7dfd78e.Emscripten.clang"
  },
  "schemaVersion": "3.4.16",
  "updatedAt": "2024-09-20T13:39:32.038Z",
  "networkType": "ethereum",
  "devdoc": {
    "kind": "dev",
    "methods": {},
    "version": 1
  },
  "userdoc": {
    "kind": "user",
    "methods": {},
    "version": 1
  }
}