{
  "contractName": "MedicalDataConsent",
  "abi": [
    {
      "anonymous": false,
      "inputs": [
        {
          "indexed": true,
          "internalType": "address",
          "name": "researcher",
          "type": "address"
        },
        {
          "indexed": true,
          "internalType": "address",
          "name": "patient",
          "type": "address"
        }
      ],
      "name": "AccessRequested",
      "type": "event"
    },
    {
      "anonymous": false,
      "inputs": [
        {
          "indexed": true,
          "internalType": "address",
          "name": "patient",
          "type": "address"
        },
        {
          "indexed": true,
          "internalType": "address",
          "name": "requester",
          "type": "address"
        }
      ],
      "name": "ConsentGiven",
      "type": "event"
    },
    {
      "anonymous": false,
      "inputs": [
        {
          "indexed": true,
          "internalType": "address",
          "name": "patient",
          "type": "address"
        },
        {
          "indexed": true,
          "internalType": "address",
          "name": "requester",
          "type": "address"
        }
      ],
      "name": "ConsentRevoked",
      "type": "event"
    },
    {
      "anonymous": false,
      "inputs": [
        {
          "indexed": true,
          "internalType": "address",
          "name": "patient",
          "type": "address"
        },
        {
          "indexed": false,
          "internalType": "string",
          "name": "dataHash",
          "type": "string"
        }
      ],
      "name": "DataAdded",
      "type": "event"
    },
    {
      "inputs": [
        {
          "internalType": "address",
          "name": "",
          "type": "address"
        },
        {
          "internalType": "uint256",
          "name": "",
          "type": "uint256"
        }
      ],
      "name": "accessRequesters",
      "outputs": [
        {
          "internalType": "address",
          "name": "",
          "type": "address"
        }
      ],
      "stateMutability": "view",
      "type": "function",
      "constant": true
    },
    {
      "inputs": [
        {
          "internalType": "address",
          "name": "",
          "type": "address"
        },
        {
          "internalType": "address",
          "name": "",
          "type": "address"
        }
      ],
      "name": "consents",
      "outputs": [
        {
          "internalType": "address",
          "name": "requester",
          "type": "address"
        },
        {
          "internalType": "bool",
          "name": "isApproved",
          "type": "bool"
        }
      ],
      "stateMutability": "view",
      "type": "function",
      "constant": true
    },
    {
      "inputs": [
        {
          "internalType": "address",
          "name": "",
          "type": "address"
        }
      ],
      "name": "medicalRecords",
      "outputs": [
        {
          "internalType": "string",
          "name": "dataHash",
          "type": "string"
        },
        {
          "internalType": "address",
          "name": "patient",
          "type": "address"
        }
      ],
      "stateMutability": "view",
      "type": "function",
      "constant": true
    },
    {
      "inputs": [
        {
          "internalType": "string",
          "name": "dataHash",
          "type": "string"
        }
      ],
      "name": "addMedicalRecord",
      "outputs": [],
      "stateMutability": "nonpayable",
      "type": "function"
    },
    {
      "inputs": [
        {
          "internalType": "address",
          "name": "patient",
          "type": "address"
        }
      ],
      "name": "requestAccess",
      "outputs": [],
      "stateMutability": "nonpayable",
      "type": "function"
    },
    {
      "inputs": [
        {
          "internalType": "address",
          "name": "requester",
          "type": "address"
        }
      ],
      "name": "giveConsent",
      "outputs": [],
      "stateMutability": "nonpayable",
      "type": "function"
    },
    {
      "inputs": [
        {
          "internalType": "address",
          "name": "requester",
          "type": "address"
        }
      ],
      "name": "revokeConsent",
      "outputs": [],
      "stateMutability": "nonpayable",
      "type": "function"
    },
    {
      "inputs": [
        {
          "internalType": "address",
          "name": "patient",
          "type": "address"
        }
      ],
      "name": "hasConsent",
      "outputs": [
        {
          "internalType": "bool",
          "name": "",
          "type": "bool"
        }
      ],
      "stateMutability": "view",
      "type": "function",
      "constant": true
    },
    {
      "inputs": [
        {
          "internalType": "address",
          "name": "patient",
          "type": "address"
        }
      ],
      "name": "getAccessRequesters",
      "outputs": [
        {
          "internalType": "address[]",
          "name": "",
          "type": "address[]"
        }
      ],
      "stateMutability": "view",
      "type": "function",
      "constant": true
    },
    {
      "inputs": [
        {
          "internalType": "address",
          "name": "patient",
          "type": "address"
        }
      ],
      "name": "hasMedicalRecord",
      "outputs": [
        {
          "internalType": "bool",
          "name": "",
          "type": "bool"
        }
      ],
      "stateMutability": "view",
      "type": "function",
      "constant": true
    }
  ],
  "bytecode": "0x608060405234801561001057600080fd5b5061174e806100206000396000f3fe608060405234801561001057600080fd5b506004361061009e5760003560e01c806399bb33221161006657806399bb33221461016c578063ae83af551461019c578063d1a48627146101cd578063e3cd9369146101e9578063e671926a146102195761009e565b8063022cb271146100a3578063106d6170146100bf5780634b350faa146100f05780634e23553f14610120578063799cb1c214610150575b600080fd5b6100bd60048036038101906100b89190611158565b610235565b005b6100d960048036038101906100d49190611158565b6105ec565b6040516100e7929190611479565b60405180910390f35b61010a60048036038101906101059190611158565b6106b8565b604051610117919061141a565b60405180910390f35b61013a600480360381019061013591906111bd565b610785565b60405161014791906113d6565b60405180910390f35b61016a60048036038101906101659190611158565b6107d3565b005b61018660048036038101906101819190611158565b610aa3565b604051610193919061143c565b60405180910390f35b6101b660048036038101906101b19190611181565b610b3d565b6040516101c49291906113f1565b60405180910390f35b6101e760048036038101906101e29190611158565b610b9b565b005b61020360048036038101906101fe9190611158565b610e6c565b604051610210919061143c565b60405180910390f35b610233600480360381019061022e91906111f9565b610f02565b005b600073ffffffffffffffffffffffffffffffffffffffff166000808373ffffffffffffffffffffffffffffffffffffffff1673ffffffffffffffffffffffffffffffffffffffff16815260200190815260200160002060010160009054906101000a900473ffffffffffffffffffffffffffffffffffffffff1673ffffffffffffffffffffffffffffffffffffffff161415610306576040517f08c379a00000000000000000000000000000000000000000000000000000000081526004016102fd906114a9565b60405180910390fd5b600073ffffffffffffffffffffffffffffffffffffffff16600160008373ffffffffffffffffffffffffffffffffffffffff1673ffffffffffffffffffffffffffffffffffffffff16815260200190815260200160002060003373ffffffffffffffffffffffffffffffffffffffff1673ffffffffffffffffffffffffffffffffffffffff16815260200190815260200160002060000160009054906101000a900473ffffffffffffffffffffffffffffffffffffffff1673ffffffffffffffffffffffffffffffffffffffff16141561047b57600260008273ffffffffffffffffffffffffffffffffffffffff1673ffffffffffffffffffffffffffffffffffffffff168152602001908152602001600020339080600181540180825580915050600190039060005260206000200160009091909190916101000a81548173ffffffffffffffffffffffffffffffffffffffff021916908373ffffffffffffffffffffffffffffffffffffffff1602179055505b60405180604001604052803373ffffffffffffffffffffffffffffffffffffffff16815260200160001515815250600160008373ffffffffffffffffffffffffffffffffffffffff1673ffffffffffffffffffffffffffffffffffffffff16815260200190815260200160002060003373ffffffffffffffffffffffffffffffffffffffff1673ffffffffffffffffffffffffffffffffffffffff16815260200190815260200160002060008201518160000160006101000a81548173ffffffffffffffffffffffffffffffffffffffff021916908373ffffffffffffffffffffffffffffffffffffffff16021790555060208201518160000160146101000a81548160ff0219169083151502179055509050508073ffffffffffffffffffffffffffffffffffffffff163373ffffffffffffffffffffffffffffffffffffffff167f40c7749b16fdfb0d550f20273a7767875059d647af94f5a9610c63ad73dcc79f60405160405180910390a350565b600060205280600052604060002060009150905080600001805461060f90611649565b80601f016020809104026020016040519081016040528092919081815260200182805461063b90611649565b80156106885780601f1061065d57610100808354040283529160200191610688565b820191906000526020600020905b81548152906001019060200180831161066b57829003601f168201915b5050505050908060010160009054906101000a900473ffffffffffffffffffffffffffffffffffffffff16905082565b6060600260008373ffffffffffffffffffffffffffffffffffffffff1673ffffffffffffffffffffffffffffffffffffffff16815260200190815260200160002080548060200260200160405190810160405280929190818152602001828054801561077957602002820191906000526020600020905b8160009054906101000a900473ffffffffffffffffffffffffffffffffffffffff1673ffffffffffffffffffffffffffffffffffffffff168152602001906001019080831161072f575b50505050509050919050565b600260205281600052604060002081815481106107a157600080fd5b906000526020600020016000915091509054906101000a900473ffffffffffffffffffffffffffffffffffffffff1681565b3373ffffffffffffffffffffffffffffffffffffffff166000803373ffffffffffffffffffffffffffffffffffffffff1673ffffffffffffffffffffffffffffffffffffffff16815260200190815260200160002060010160009054906101000a900473ffffffffffffffffffffffffffffffffffffffff1673ffffffffffffffffffffffffffffffffffffffff16146108a2576040517f08c379a0000000000000000000000000000000000000000000000000000000008152600401610899906114e9565b60405180910390fd5b8073ffffffffffffffffffffffffffffffffffffffff16600160003373ffffffffffffffffffffffffffffffffffffffff1673ffffffffffffffffffffffffffffffffffffffff16815260200190815260200160002060008373ffffffffffffffffffffffffffffffffffffffff1673ffffffffffffffffffffffffffffffffffffffff16815260200190815260200160002060000160009054906101000a900473ffffffffffffffffffffffffffffffffffffffff1673ffffffffffffffffffffffffffffffffffffffff16146109af576040517f08c379a00000000000000000000000000000000000000000000000000000000081526004016109a6906114c9565b60405180910390fd5b60018060003373ffffffffffffffffffffffffffffffffffffffff1673ffffffffffffffffffffffffffffffffffffffff16815260200190815260200160002060008373ffffffffffffffffffffffffffffffffffffffff1673ffffffffffffffffffffffffffffffffffffffff16815260200190815260200160002060000160146101000a81548160ff0219169083151502179055508073ffffffffffffffffffffffffffffffffffffffff163373ffffffffffffffffffffffffffffffffffffffff167f6f9fc0e2e04f63804b784301d64936328c6de2fc16baff3732b8486e910f2b3960405160405180910390a350565b60008073ffffffffffffffffffffffffffffffffffffffff166000808473ffffffffffffffffffffffffffffffffffffffff1673ffffffffffffffffffffffffffffffffffffffff16815260200190815260200160002060010160009054906101000a900473ffffffffffffffffffffffffffffffffffffffff1673ffffffffffffffffffffffffffffffffffffffff1614159050919050565b6001602052816000526040600020602052806000526040600020600091509150508060000160009054906101000a900473ffffffffffffffffffffffffffffffffffffffff16908060000160149054906101000a900460ff16905082565b3373ffffffffffffffffffffffffffffffffffffffff166000803373ffffffffffffffffffffffffffffffffffffffff1673ffffffffffffffffffffffffffffffffffffffff16815260200190815260200160002060010160009054906101000a900473ffffffffffffffffffffffffffffffffffffffff1673ffffffffffffffffffffffffffffffffffffffff1614610c6a576040517f08c379a0000000000000000000000000000000000000000000000000000000008152600401610c61906114e9565b60405180910390fd5b8073ffffffffffffffffffffffffffffffffffffffff16600160003373ffffffffffffffffffffffffffffffffffffffff1673ffffffffffffffffffffffffffffffffffffffff16815260200190815260200160002060008373ffffffffffffffffffffffffffffffffffffffff1673ffffffffffffffffffffffffffffffffffffffff16815260200190815260200160002060000160009054906101000a900473ffffffffffffffffffffffffffffffffffffffff1673ffffffffffffffffffffffffffffffffffffffff1614610d77576040517f08c379a0000000000000000000000000000000000000000000000000000000008152600401610d6e906114c9565b60405180910390fd5b6000600160003373ffffffffffffffffffffffffffffffffffffffff1673ffffffffffffffffffffffffffffffffffffffff16815260200190815260200160002060008373ffffffffffffffffffffffffffffffffffffffff1673ffffffffffffffffffffffffffffffffffffffff16815260200190815260200160002060000160146101000a81548160ff0219169083151502179055508073ffffffffffffffffffffffffffffffffffffffff163373ffffffffffffffffffffffffffffffffffffffff167febecee2d3f2ea272f73dd9d9ccc0bacd11280d61240332cbcd8a68173ae5cc2c60405160405180910390a350565b6000600160008373ffffffffffffffffffffffffffffffffffffffff1673ffffffffffffffffffffffffffffffffffffffff16815260200190815260200160002060003373ffffffffffffffffffffffffffffffffffffffff1673ffffffffffffffffffffffffffffffffffffffff16815260200190815260200160002060000160149054906101000a900460ff169050919050565b60405180604001604052808281526020013373ffffffffffffffffffffffffffffffffffffffff168152506000803373ffffffffffffffffffffffffffffffffffffffff1673ffffffffffffffffffffffffffffffffffffffff1681526020019081526020016000206000820151816000019080519060200190610f87929190611023565b5060208201518160010160006101000a81548173ffffffffffffffffffffffffffffffffffffffff021916908373ffffffffffffffffffffffffffffffffffffffff1602179055509050503373ffffffffffffffffffffffffffffffffffffffff167f4a38af5210d98524692cc33078e70f9daeb8b199bfdec0b4c06f150817ddad76826040516110189190611457565b60405180910390a250565b82805461102f90611649565b90600052602060002090601f0160209004810192826110515760008555611098565b82601f1061106a57805160ff1916838001178555611098565b82800160010185558215611098579182015b8281111561109757825182559160200191906001019061107c565b5b5090506110a591906110a9565b5090565b5b808211156110c25760008160009055506001016110aa565b5090565b60006110d96110d48461153a565b611509565b9050828152602081018484840111156110f157600080fd5b6110fc848285611607565b509392505050565b600081359050611113816116ea565b92915050565b600082601f83011261112a57600080fd5b813561113a8482602086016110c6565b91505092915050565b60008135905061115281611701565b92915050565b60006020828403121561116a57600080fd5b600061117884828501611104565b91505092915050565b6000806040838503121561119457600080fd5b60006111a285828601611104565b92505060206111b385828601611104565b9150509250929050565b600080604083850312156111d057600080fd5b60006111de85828601611104565b92505060206111ef85828601611143565b9150509250929050565b60006020828403121561120b57600080fd5b600082013567ffffffffffffffff81111561122557600080fd5b61123184828501611119565b91505092915050565b60006112468383611252565b60208301905092915050565b61125b816115bf565b82525050565b61126a816115bf565b82525050565b600061127b8261157a565b611285818561159d565b93506112908361156a565b8060005b838110156112c15781516112a8888261123a565b97506112b383611590565b925050600181019050611294565b5085935050505092915050565b6112d7816115d1565b82525050565b60006112e882611585565b6112f281856115ae565b9350611302818560208601611616565b61130b816116d9565b840191505092915050565b60006113236016836115ae565b91507f50617469656e7420646f6573206e6f74206578697374000000000000000000006000830152602082019050919050565b60006113636017836115ae565b91507f4e6f20616363657373207265717565737420666f756e640000000000000000006000830152602082019050919050565b60006113a3600e836115ae565b91507f4e6f7420617574686f72697a65640000000000000000000000000000000000006000830152602082019050919050565b60006020820190506113eb6000830184611261565b92915050565b60006040820190506114066000830185611261565b61141360208301846112ce565b9392505050565b600060208201905081810360008301526114348184611270565b905092915050565b600060208201905061145160008301846112ce565b92915050565b6000602082019050818103600083015261147181846112dd565b905092915050565b6000604082019050818103600083015261149381856112dd565b90506114a26020830184611261565b9392505050565b600060208201905081810360008301526114c281611316565b9050919050565b600060208201905081810360008301526114e281611356565b9050919050565b6000602082019050818103600083015261150281611396565b9050919050565b6000604051905081810181811067ffffffffffffffff821117156115305761152f6116aa565b5b8060405250919050565b600067ffffffffffffffff821115611555576115546116aa565b5b601f19601f8301169050602081019050919050565b6000819050602082019050919050565b600081519050919050565b600081519050919050565b6000602082019050919050565b600082825260208201905092915050565b600082825260208201905092915050565b60006115ca826115dd565b9050919050565b60008115159050919050565b600073ffffffffffffffffffffffffffffffffffffffff82169050919050565b6000819050919050565b82818337600083830152505050565b60005b83811015611634578082015181840152602081019050611619565b83811115611643576000848401525b50505050565b6000600282049050600182168061166157607f821691505b602082108114156116755761167461167b565b5b50919050565b7f4e487b7100000000000000000000000000000000000000000000000000000000600052602260045260246000fd5b7f4e487b7100000000000000000000000000000000000000000000000000000000600052604160045260246000fd5b6000601f19601f8301169050919050565b6116f3816115bf565b81146116fe57600080fd5b50565b61170a816115fd565b811461171557600080fd5b5056fea2646970667358221220e87a0395de0b9d5d3b3b90649b1517f1a41acd468d0352de6ea0d1dd00d3331d64736f6c63430008000033",
  "immutableReferences": {},
  "source": "contract MedicalDataConsent {\n    struct MedicalRecord {\n        string dataHash;\n        address patient;\n    }\n\n    struct Consent {\n        address requester;\n        bool isApproved;\n    }\n\n    // Mapping from patient address to their medical records\n    mapping(address => MedicalRecord) public medicalRecords;\n\n    // Mapping from patient address to researcher address to consent status\n    mapping(address => mapping(address => Consent)) public consents;\n\n    // Mapping to store an array of researchers who have requested access\n    mapping(address => address[]) public accessRequesters;\n\n    event DataAdded(address indexed patient, string dataHash);\n    event ConsentGiven(address indexed patient, address indexed requester);\n    event ConsentRevoked(address indexed patient, address indexed requester);\n    event AccessRequested(address indexed researcher, address indexed patient);\n\n    function addMedicalRecord(string memory dataHash) public {\n        medicalRecords[msg.sender] = MedicalRecord(dataHash, msg.sender);\n        emit DataAdded(msg.sender, dataHash);\n    }\n\n    function requestAccess(address patient) public {\n        require(medicalRecords[patient].patient != address(0), \"Patient does not exist\");\n        \n        // Add researcher to accessRequesters array if not already added\n        if (consents[patient][msg.sender].requester == address(0)) {\n            accessRequesters[patient].push(msg.sender);\n        }\n        \n        consents[patient][msg.sender] = Consent(msg.sender, false);\n        emit AccessRequested(msg.sender, patient);\n    }\n\n    function giveConsent(address requester) public {\n        require(medicalRecords[msg.sender].patient == msg.sender, \"Not authorized\");\n        require(consents[msg.sender][requester].requester == requester, \"No access request found\");\n        consents[msg.sender][requester].isApproved = true;\n        emit ConsentGiven(msg.sender, requester);\n    }\n\n    function revokeConsent(address requester) public {\n        require(medicalRecords[msg.sender].patient == msg.sender, \"Not authorized\");\n        require(consents[msg.sender][requester].requester == requester, \"No access request found\");\n        consents[msg.sender][requester].isApproved = false;\n        emit ConsentRevoked(msg.sender, requester);\n    }\n\n    function hasConsent(address patient) public view returns (bool) {\n        return consents[patient][msg.sender].isApproved;\n    }\n\n    // Function to get all researchers who requested access\n    function getAccessRequesters(address patient) public view returns (address[] memory) {\n        return accessRequesters[patient];\n    }\n\n    function hasMedicalRecord(address patient) public view returns (bool) {\n    return medicalRecords[patient].patient != address(0);\n}\n\n}\n",
  "sourcePath": "/home/arvind/de-mesp/frontend/contracts/MedicalDataConsent.sol",
  "compiler": {
    "name": "solc",
    "version": "0.8.0+commit.c7dfd78e.Emscripten.clang"
  },
  "schemaVersion": "3.4.16",
  "updatedAt": "2024-09-25T14:56:47.743Z",
  "networkType": "ethereum",
  "devdoc": {
    "kind": "dev",
    "methods": {},
    "version": 1
  },
  "userdoc": {
    "kind": "user",
    "methods": {},
    "version": 1
  }
}